:020000040800F2
:10000000B00B0020DD0100082B4A0008B13E0008BB
:10001000294A00080D050008615F00080000000083
:100020000000000000000000000000005355000820
:100030001D050008000000002D4A0008F501000819
:10004000F7010008F7010008F7010008F7010008B0
:10005000F7010008F7010008F7010008F7010008A0
:10006000F7010008F7010008F7010008F701000890
:10007000F7010008F7010008F7010008F701000880
:10008000F7010008F7010008F7010008F701000870
:10009000F7010008F7010008F7010008F701000860
:1000A000F7010008F7010008F7010008F701000850
:1000B000F7010008F7010008F7010008F701000840
:1000C000F7010008F7010008F7010008F701000830
:1000D000F7010008495F0008F7010008F701000870
:1000E000F7010008F7010008F7010008F701000810
:1000F000F7010008F7010008F7010008F701000800
:10010000F7010008F7010008F7010008F7010008EF
:10011000F7010008F70100087D560008F701000804
:10012000F7010008F7010008F7010008F7010008CF
:10013000F7010008F7010008F7010008F7010008BF
:10014000F7010008F7010008F7010008F7010008AF
:10015000F7010008F7010008F7010008555F0008E3
:10016000F7010008F7010008F7010008F70100088F
:10017000F7010008F7010008F7010008000000007F
:10018000F7010008F7010008F7010008F70100086F
:10019000F7010008F7010008F7010008F70100085F
:1001A000B53E0008F701000811050008F701000836
:1001B000F7010008F7010008F7010008F70100083F
:1001C000F7010008F7010008DFF80CD000F08CF808
:1001D00000480047A55F0008B00B00200648804794
:1001E00006480047FEE7FEE7FEE7FEE7FEE7FEE71C
:1001F000FEE7FEE7FEE7FEE729560008C901000812
:100200002DE9F05F0546002092469B46884606464B
:10021000814640241BE0284641464746224600F0DE
:1002200053F853465A46C01A914110D31146184606
:10023000224600F03AF82D1A67EB01084F46224695
:100240000120002100F031F817EB00094E41201E7B
:10025000A4F10104DFDC484631462A464346BDE8A6
:10026000F09F40EA01039B0703D009E008C9121F71
:1002700008C0042AFAD203E011F8013B00F8013B60
:10028000521EF9D27047D2B201E000F8012B491E8C
:10029000FBD270470022F6E710B513460A46044623
:1002A0001946FFF7F0FF204610BD202A04DB203A54
:1002B00000FA02F1002070479140C2F1200320FAB9
:1002C00003F3194390407047202A04DB203A21FAB7
:1002D00002F00021704721FA02F3D040C2F120025F
:1002E0009140084319467047064C074D06E0E06808
:1002F00040F0010394E8070098471034AC42F6D36D
:10030000FFF766FFC8600008E86000084A496FF020
:10031000706210B5D1F8043323F44033C1F80433CC
:10032000D1F8043344682343C1F8043301684B68AF
:1003300023F480734B60016803694C6844EA03232B
:100340004B6001684B6823F040734B600168846820
:100350004B6823434B6001688B6823F400638B6018
:100360000168C4688B6823438B60816AD14201684D
:100370008A6822F070628A6001680DD0836A8A6898
:100380001A438A6001688A6822F040528A600168D4
:10039000C36A8A681A4302E08A6822F040528A607F
:1003A00001688A6822F002028A60016882698B68AB
:1003B00043EA42028A6090F820100029016811D0B7
:1003C0001E4A4B6843F400634B6001684B6823F49A
:1003D00060434B600168446A4B6802EB443213434C
:1003E0004B6003E04A6822F400624A600168144BE3
:1003F000CA6A22F47002CA620168848BCA6A03EB7B
:1004000004531A43CA6201688A6822F400728A603F
:10041000016890F830208B6843EA42228A600168C4
:100420008A6822F480628A60016840698A6842EAC8
:100430008020886010BD00000020014000E0FFFF28
:100440000000F0FF10B501240348610300F0F8FD3F
:1004500000B10024204610BD0008024001460148BA
:1004600002F0E4BCD4030020044810B502F0F0FC14
:10047000042801D0012010BD002010BDD4030020AD
:1004800010B500F015F8012801D0022010BD074872
:1004900002F0F4FC040006D104484FF4006102F0BD
:1004A0008CFB00B10124204610BD0000D4030020C5
:1004B00008B501208DF80000FFF7C4FF10B9002037
:1004C0008DF800009DF8000008BD000038B500243C
:1004D000009313460A460146034802F05DFD00B151
:1004E0000124204638BD0000D403002038B5002484
:1004F000009313460A460146034802F025FE00B168
:100500000124204638BD0000D4030020FEE700008F
:10051000014800F051BB0000E000002070470022BD
:10052000AFF300800E4B70B505465C7A0120002CBD
:1005300014D15E7A03F108009C555E7A03EB8606BF
:1005400075605D7A2A54587A421C5A723A232F22D7
:10055000303008704B7020468A70CC7070BD00003F
:10056000A4070020F0B5D1E90125D1E90343D1E981
:1005700005762A43D1F800C044EA0304D1E90735DF
:1005800042EA0402496A42EA0702BCF1010F42EA68
:10059000060208D004681A432A430A43E30BDB032C
:1005A0001A4302600BE0066844682B4326F4F845C2
:1005B00029430B4303606FF30E0422434260002083
:1005C000F0BD00002DE9F043914691E81C006FF06A
:1005D0000F05521E2E0105EB03131A430B7E06EB8B
:1005E00004268C8A2F034FEA054C0D8A32434FF0C4
:1005F0007F4808EB0366CB68B9F1010F07EB0545AF
:100600000CEB04540CD081683F1107EB03331A4301
:100610002A432243324301F070410A43826011E0D1
:100620008168DFF828C0C7681B03A3F58053234304
:100630002A4301EA0C0132430B43836007F0704404
:100640002243C2600020BDE8F0830000FF0F0FFFCF
:10065000F8B50025009590F83C20012A18D0012219
:1006600080F83C200A6807234E4C0668092A1AD9EC
:100670000A3A02EB4207F268BB409A43F2600E6806
:100680000268A64206D10B7AD66846EA036308E000
:100690000220F8BD0A3E8B68D76806EB4606B340D9
:1006A0003B43D3600EE002EB42073269BB409A4302
:1006B000326103680E788A681F6906EB4606B2400D
:1006C0003A431A614A681F23072A13D20668521E4A
:1006D00002EB8207726BBB409A43726303680E7928
:1006E0000A88761E5F6B92B206EB8606B2403A43EA
:1006F0005A6327E006680D2A12D2D21F02EB820746
:10070000326BBB409A43326302680E790B88F61F46
:10071000176B9BB206EB8606B3403B43136311E0B5
:100720000D3A02EB8207F26ABB409A43F26202681A
:100730000E790B880D3ED76A9BB206EB8606B34056
:100740003B43D362184A0368934208D10B68122BCB
:1007500005D1D2F8043343F48003C2F804330368AC
:1007600093421AD10B68A34201D0112B15D1D2F8B4
:10077000043343F40003C2F804330968A1420CD1E6
:100780000A490B4A0968B1FBF2F101EB810149000A
:1007900000E0491E00910029FBD180F83C50002068
:1007A000F8BD0000120000100020014020000020D1
:1007B00040420F0070B504004FF0000503D0206CDC
:1007C000002610B107E0012070BD204600F01CF8A3
:1007D000666484F83C60206CC00610D4206C20F461
:1007E000885040F0020020642046FFF78FFD6664C9
:1007F000206C20F0020040F00100206400E00125A0
:1008000084F83C60284670BD30B587B0044614219A
:100810006846FFF73FFD1A49206888422DD11948E4
:10082000016841F480610160006800F48060059017
:1008300014481438016841F020010160016801F09A
:1008400020010591016841F0010101600068032564
:100850000024694600F0010005904FF4F86002940E
:10086000CDE90005084800F0FFFA01206946CDE90E
:1008700000050648029400F0F7FA07B030BD00000A
:1008800000220140443802400014024000000240AF
:10089000F0B50126044600201E2301E05B1E05D3AF
:1008A00003F01F0706FA07F50D42F7D072B1082AC8
:1008B0000AD0102A05D0182A01D1072B06D301200F
:1008C000F0BD082BFBD201E0102BF8D22368596150
:1008D00021688B6823F0180313438B60F0BD000080
:1008E00010B5040010D0607F20B90020207720468A
:1008F00000F032F821790220607739B1D4E9021290
:100900002046FFF7C5FF48B1012010BD21681148FE
:1009100048612068816821F0180181606079A0B188
:10092000216820690861012220686369816821F0DB
:100930006001194381602068A369816821F080010A
:10094000194381606277002010BD21684FF0FF30AD
:10095000E8E70000B71DC10408B5006806498842F1
:1009600008D10648016841F480510160006800F434
:100970008050009008BD0000003002403038024036
:1009800070B5040003D094F8350010B104E00120E4
:1009900070BD204600F03AF8022084F83500206847
:1009A000194A016811400160D4E90453E168D4E9AF
:1009B000010229431843A36908431043D4E90815E9
:1009C0001843084354F8281B28432CCC10430A68CA
:1009D000184328431043086054F8300C343C102866
:1009E00005D12268E17FE06961F31F6090612068B2
:1009F00000220121C36843F01E03C360E26484F84F
:100A00003510104670BD000007F0E0FF70B586B0ED
:100A1000044614216846FFF73DFC374920688842A8
:100A200068D13648016841F001010160006800F0BA
:100A3000010005903148001F016841F0100101607C
:100A4000016801F010010591016841F008010160A1
:100A5000016801F008010591016841F04001016061
:100A6000016801F040010591016841F080010160D9
:100A7000016801F080010591016841F00101016008
:100A8000006800240D26694600F0010005906020F2
:100A9000009002251A48CDE90154CDE9034600F043
:100AA000E3F908200090CDE9015416486946CDE9E4
:100AB000034600F0D9F928020090CDE9015412480C
:100AC0006946CDE9034600F0CFF94FF4BC400090F1
:100AD000CDE901540D486946CDE9034600F0C4F95B
:100AE00050200090CDE9015409486946CDE90346FC
:100AF00000F0BAF906B070BD00000550343802406D
:100B000000100240000C024000180240001C02408D
:100B1000000002407047000070B590F83820012AAC
:100B200023D0244C012680F83860022300EB011208
:100B300080F83930158CD36918320A2B43EA054501
:100B400015D0092B13D0137B45EA0363056899B1CF
:100B5000E969A1431943E961016813680B615168B0
:100B60000A291BD0092919D01DE0022070BDD368C5
:100B700003F07F432B43E9E7696AA14319436962A4
:100B8000016813688B6151680A2901D009290AD1CB
:100B9000D168026821F07F41916204E0D168026867
:100BA00021F07F411162002180F8396080F838100F
:100BB000084670BD0F0003FF2DE9F04704460068AA
:100BC00000274FF004084FF0010946680568F10757
:100BD00014D0E90512D5036823F480730360E06B39
:100BE00040F00100E0632068C0F8089084F8398084
:100BF00084F83870616909B120468847B00615D578
:100C0000A80413D520682022036823F4005303604E
:100C100020688260E06B40F00200E06384F8398075
:100C200084F83870616909B120468847300715D5C6
:100C3000280513D520680822036823F400630360A5
:100C400020688260E06B40F00400E06384F8398043
:100C500084F83870616909B12046884770070CD55F
:100C600068050AD52068026822F480620260206864
:100C7000C0F80880204600F05AF8B00713D5A80540
:100C800011D520680222036823F4007303602068F2
:100C90008260E06BE06384F8399084F838702169F1
:100CA00009B120468847F00612D5E80410D520681F
:100CB000016821F480510160226810219160E16B8C
:100CC000E16384F83990204684F83870FFF722FFFA
:100CD000BDE8F08770B5040004D094F83900002511
:100CE00010B106E0012070BD204684F8385000F0B5
:100CF0001FF8022084F83900D4E9000301210268BA
:100D000022F440321A4302602068A368426B22F04A
:100D100007021A4342632068E368026C6FF30D0216
:100D20001A430264E56384F83910002070BD7047EF
:100D300008B500680B49884212D10B48016841F49C
:100D40000001016000680022114600F400000090DC
:100D50005A2000F0A7FCBDE808405A2000F094BCDF
:100D600008BD000000B002403038024090F8351055
:100D7000022903D08021416501207047052180F8B8
:100D800035100068016821F0010101600020704702
:100D900070B5044600F066F90546601C02D00448B0
:100DA0000078044400F05EF9401BA042FAD370BD05
:100DB00014000020F0B587B014216846FFF76AFAE6
:100DC0002148016800293CD1012101601F480168C8
:100DD00041F001010160006802240025694600F02D
:100DE0000100059003264FF683700C278DE8F10073
:100DF000174800F039F848F2331069468DE8F100E1
:100E0000144800F031F84CF2037069468DE8F100A7
:100E1000114800F029F84FF63F0069468DE8F100CF
:100E20000E4800F021F8282069468DE8F1000C48B2
:100E300000F01AF8082069468DE8F100094800F032
:100E400013F807B0F0BD0000080000203838024059
:100E50000010024000180240000C02400014024042
:100E6000001C0240000802402DE9F84FDFF89CE129
:100E700000224FF001084FF0030B4FF00F0A00BFA4
:100E80000B6808FA02F42340A34271D14D68022D89
:100E900001D0122D0FD1D5080E69570700EB85053B
:100EA000A9462D6AFF0E0AFA07FCBE4025EA0C058A
:100EB0002E43C9F820600F79550006680BFA05FC2F
:100EC00007F0030726EA0C06AF40374307604E6879
:100ED000012E05D0022E03D0112E01D0122E0ED1DC
:100EE0008668CF6826EA0C06AF40374387604668BD
:100EF0000F79A643C7F30017974037434760C4688C
:100F00008E6824EA0C04AE402643C6604C68E400B8
:100F100075D53F4C256845F480452560246822F04E
:100F20000306950704F4804400943A4C2D0F2644A0
:100F3000D6F80848DFF8E0C00AFA05F7604524EA69
:100F4000070401D100272EE0344FB84201D1012718
:100F500029E0334FB84201D1022724E0314FB84293
:100F600001D103271FE0304FB84202D104271AE015
:100F700045E02E4FB84201D1052714E02C4FB8426E
:100F800001D106270FE02B4FB84201D107270AE015
:100F9000294FB84201D1082705E0284FB84201D1B6
:100FA000092700E00A27AF4027437546C6F80878AE
:100FB0004E68DEF80040F60324EA030400D51C4323
:100FC000124E2C60361D4D683468AD0324EA0304CC
:100FD00000D51C430D4F346008374D683C68ED0266
:100FE00024EA030400D51C43084D3C600C354E68D0
:100FF0002C68B60224EA030400D51C432C60521C62
:10100000102AFFF43DAFBDE8F88F0000003C01401E
:101010004438024000300140000002400004024019
:1010200000080240000C0240001002400014024080
:1010300000180240001C0240002002400024024030
:101040000069084000D001207047426931EA02027D
:1010500000D10904816170470AB1816170470904B8
:10106000FBE7000001488068704700001400002082
:1010700030B590F84120202A24D190F84020012A50
:1010800020D0012380F84030242280F84120202302
:1010900000240268156825F00105156002681568CE
:1010A00025F480551560026815680D4315600168C8
:1010B0000A6842F001020A6080F8413080F840403E
:1010C000002030BD022030BD30B590F84120202AEC
:1010D00022D190F84020012A1ED0012380F8403010
:1010E000242280F84120202400250268136823F080
:1010F000010313600268136823F4706343EA01215B
:10110000116001680A6842F001020A6080F84140FB
:1011100080F84050002030BD022030BD70B5040082
:1011200004D094F84100002510B106E0012070BD04
:10113000204684F8405000F04DF8242084F8410007
:101140002068016821F001010160D4E9001020F05D
:10115000706008612068816821F400418160E06866
:1011600021680128A06806D040F404408860E06847
:10117000022803D006E040F40040F7E721684FF46E
:101180000060486020212068114A4368134343608F
:101190002068C26822F40042C26054F8106B0DCC83
:1011A000104340EA0320F06054F81C3CD4E90002EC
:1011B0001043186054F81C0D026842F001020260EE
:1011C000656484F84110256384F84250002070BDA6
:1011D0000080000270B586B0044614216846FFF70F
:1011E00059F825681220224C0122224E042320495E
:1011F0001034B5421BD10D6845F002050D60096839
:101200000025049301F0020105914FF44071CDE9EE
:10121000001019486946CDE90225FFF725FE206830
:1012200040F400102060206800F400101DE0134E10
:10123000B5421BD10D6845F080050D600968032596
:10124000049301F0800105914FF4C071CDE90010C5
:101250000B486946CDE90225FFF706FE206840F4F9
:1012600000002060206800F40000059006B070BD0A
:10127000303802400054004000040240005C00404E
:10128000001C024002488168027811448160704766
:1012900014000020032010B500F024FA002000F014
:1012A00005F800F0D9F9002010BD000010B50022AB
:1012B0000146362088B000F0F5F9362000F0E4F958
:1012C0001348016841F010010160006805A900F0B1
:1012D00010000690684600F0C3FE00F0E1FE0D49E4
:1012E000400000220C4CB0FBF1F10C4840F2E73317
:1012F0000460C0E90332491EC0E9011202F0E6F8B9
:1013000010B1012008B010BD044802F03FF9F9E720
:101310004038024040420F000010004064070020A7
:101320002DE9F041044690F8A00016460F4601282A
:101330001DD0012584F8A050022084F8A10006EBFE
:10134000860000EBC600342204EB80003830FEF744
:1013500088FF32463946204602F0B2FD216800205F
:101360004D6284F8A15084F8A000BDE8F08102200D
:10137000FBE770472DE9F0410446006800274FF075
:101380000408856B466B690715D5710713D5426B49
:1013900022F0040242632068C0F83C80D4F8A40024
:1013A00040F00100C4F8A40084F8A180204684F82D
:1013B000A070FFF7DEFFA80716D5B00714D5206888
:1013C0000222436B23F0020343632068C263D4F814
:1013D000A40040F00200C4F8A40084F8A1802046D4
:1013E00084F8A070FFF7C5FF05EA06004FF001087A
:1013F000C0070ED021684A6B22F001024A632168BF
:10140000C1F83C8084F8A180204684F8A07000F0E8
:1014100091F8280710D530070ED520680822436BB5
:1014200023F0080343632068C26384F8A180204648
:1014300084F8A07000F00EF9BDE8F0812DE9F041CC
:10144000040004D094F8A100002518B107E00120A1
:10145000BDE8F081204684F8A05000F06DF83448D3
:10146000022184F8A110012202CC8B6923F0704381
:101470008B6194E84A001943E3681E4354F8043D25
:1014800031439E693143996121688B6803408B60C9
:101490002168A68AA7698B683B4343EA06438B60B1
:1014A0002168CB680340CB602168A38B276ACE6894
:1014B0003E4346EA0346CE6021680B6903400B6158
:1014C0002368A68CA76A1969394341EA0641196164
:1014D00021684B6903404B612068A38D266B4169ED
:1014E000314341EA03414161236894F8351094F88F
:1014F0003600DE6A000406F07F46DE62236840EABA
:10150000012094F83460D96A31430143D9622068DC
:10151000416B41F0060141632068816941F001019E
:101520008161C4F8A45084F8A120002090E7000055
:1015300000F800F07047000070B586B00446142132
:101540006846FEF7A7FE3C492068884272D13B48B6
:10155000016841F080610160006800F080600590E2
:1015600036481438016841F010010160016801F04B
:1015700010010591016841F400710160016801F4F6
:1015800000710591016841F480610160016801F416
:1015900080610591016841F040010160016801F03E
:1015A00040010591016841F48071016000680024E8
:1015B0000E26694600F480700590102000900225E8
:1015C0001F48CDE90154CDE90346FFF74DFC4EF627
:1015D000FF700090CDE901541A486946CDE90346F1
:1015E000FFF742FCF7200090CDE901541648694608
:1015F000CDE90346FFF738FC0921E8020090CDE968
:101600000154CDE9034111486946FFF72DFC4FF421
:1016100046400090CDE901540D486946CDE90346A6
:10162000FFF722FC00225820114600F03BF858201A
:1016300000F02AF806B070BD00680140443802404E
:10164000001002400024024000280240001802401E
:1016500000200240704700000A4808B5016841F0C8
:1016600080510160006800F0805000900548001D26
:10167000016841F480410160006800F480400090FE
:1016800008BD000040380240002809DB410900F095
:101690001F028900012001F1E0219040C1F8000102
:1016A000704700000E4BF0B41B680D46C3F30223D5
:1016B000C3F10706042E00D90426191D072901D2FB
:1016C000002300E0DB1E012404FA06F19C40491EC1
:1016D0002940641E994014402143F0BC04F041BCF1
:1016E0000CED00E0064900F0070210B54FF6FF04CC
:1016F0000868044B204040EA02201843086010BDEF
:101700000CED00E00000FA051848F8B5016841F05A
:10171000805101600068164C00F0805000902068F5
:1017200040F480302060FFF79DFC4FF47A76054648
:1017300005E000BFFFF796FC401BB0420FD8606881
:10174000C003F7D5206840F400302060FFF78AFC22
:10175000054606E0FFF786FC401BB04201D9032096
:10176000F8BD60688003F5D50020F8BD4038024020
:10177000007000400248016841F4807101607047C8
:1017800000700040F8B50446FFF76CFC07465CB1FA
:1017900094F84000012809D0012684F84060002513
:1017A00094F8410020B10BE00120F8BD0220F8BD03
:1017B00084F84050204600F045F841F28830A0649B
:1017C00020686FF0FF03A168026803EB012322F495
:1017D000F85119430160A06C002220213B46009083
:1017E000204603F024F930BB2268D4E9077C94F842
:1017F00004E0E16813683943104F4CEA0E6EDFF8DD
:1018000040C03B4041EA0E01194311602168D4E910
:101810000527B4F810E04B683A4303EA0C0343EAA7
:101820000E431A434A6021680A6842F001020A60C6
:10183000656484F8416084F84050F8BD2FFFFF00D4
:10184000FEF8E0FF2DE9F04387B004461421684616
:10185000FEF720FD2B49206888424FD12A480168B5
:1018600041F002010160006800F002000590264886
:101870000838016841F010010160016801F01001B1
:101880000591016841F002010160016801F0020167
:101890000591016841F0080101600068092701AA6B
:1018A0004FF0040800F00800CDF8008002246946DB
:1018B0000025CDE904700326144882E87000FFF784
:1018C000D3FA0A21DFF848904020CDE903618DE882
:1018D000310069464846FFF7C7FA01AACDF80080F3
:1018E0006946484682E8F000FFF7BEFA4FF46050C0
:1018F00069468DE8F1000748FFF7B6FA07B0BDE882
:10190000F0830000001000A03838024000100240B0
:1019100000040240000C0240F0B5444BB0F5002F2B
:10192000404D4FF4801E404EA3F10404404F03F19C
:101930000402404984464FF000000DD0F44516D112
:10194000D2F800C01CF4400C3CD0BCF5800F4ED047
:10195000BCF5000F0BD109E0D2F800C01CF4401C0C
:1019600006D0F44519D0BCF5001F00D13846F0BDB3
:1019700008684002086800F03F0002D4B5FBF0F0B0
:1019800001E0B6FBF0F019681B681468C1F303624C
:10199000C3F38813C4F304213DE0086840020868DB
:1019A00000F03F0002D4B5FBF0F001E0B6FBF0F030
:1019B000216823681468C1F3036204F01F01C3F3B4
:1019C000881328E008684002086800F03F0002D44D
:1019D000B5FBF0F001E0B6FBF0F01C681B68116885
:1019E000C4F30362C3F38813C1F3042113E008684E
:1019F0004002086800F03F0002D4B5FBF0F001E0BF
:101A0000B6FBF0F0256823681168C5F3036201F0A6
:101A10001F01C3F388134343491CB3FBF2F0B0FB2F
:101A2000F1F0F0BD0024F40040787D0188380240D8
:101A30000080BB00043802402DE9F84F04460078CE
:101A4000DFF824944FF000063746C0070ED0D9F8CF
:101A5000001021F40001C9F80010D9F80010626BE1
:101A60001143C9F80010606B00B90126FE4D2068D3
:101A7000843500030ED5E16B286820F4401008433C
:101A80002860E06BB0F5801F01D010B102E00126A4
:101A900000E0012720684FF4800BC0020CD5216CB8
:101AA000286820F4400008432860206C584501D184
:101AB000012601E000B901272068C10100D50126F7
:101AC000800666D5E8483830016841F080510160F1
:101AD0000068DFF898A300F080500090DAF800105A
:101AE00041F48071CAF80010FFF7BCFA804605E0A7
:101AF000FFF7B8FAA0EB080064287DD8DAF80000F8
:101B0000C005F5D5DFF8608308F16808D8F8000053
:101B100010F440702AD0218E01F44071814225D00A
:101B2000D8F80010D8F8002021F4407142F4803237
:101B3000C8F80020D8F8002022F48032C8F800202D
:101B4000C8F80010D8F80000C0070FD0FFF78AFAD5
:101B5000824607E0FFF786FAA0EB0A0141F28830DF
:101B60008142CAD8D8F800008007F3D5206BC0F3B3
:101B7000012103297ED0D9F8001021F4F811C9F809
:101B80000010228ED8F80010C2F30B021143C8F8DF
:101B900000102078C00607D5286820F080702860E3
:101BA0002868A16B084328602188AF488830490421
:101BB00005D5626E016821F440311143016021882E
:101BC000090405D5A26E016821F44021114301608A
:101BD0002168C90305D5E26E016821F44011114363
:101BE00001602168890305D5226F016821F4400155
:101BF00011430160217800E018E1490605D5626CC7
:101C0000016821F00301114301602178090605D51F
:101C1000A26C016821F00C01114301602188C90503
:101C200005D5E26C016821F0300111430160218883
:101C3000890505D5226D016821F0C00111430160BD
:101C40002188490505D5626D016821F44071114371
:101C500001602188090505D5A26D016821F4406164
:101C6000114301602188C90407D5E26D016821F4A0
:101C7000405100E041E0114301602188890405D50D
:101C8000226E016821F4404111430160216849023C
:101C900005D5A26F016821F08061114301602168C0
:101CA0004FF0006A890209D5E26F016821F00061F6
:101CB00011430160E16F514500D1012721680A07F6
:101CC00000D50127490305D5626F016821F04071F5
:101CD000114301602168090206D5D4F8802001680B
:101CE00021F0805111430160DFF88491012E0ED064
:101CF0002068B0F1007F0AD08FE05E4AD9F800304A
:101D0000104023F4F8120243C9F8002039E7D9F84B
:101D100000004E4620F08060C9F80000FFF7A2F9ED
:101D2000804605E0FFF79EF9A0EB080064287DD807
:101D300030680001F6D421784B487C30C90712D0B6
:101D4000616B81B9237A62680168D0F800C09201A2
:101D5000C1F3014142EA0142CCF3036142EA01616D
:101D600041EA0371016021680A0303D5E26BB2F511
:101D7000801F04D0C9021AD5216C594517D1636858
:101D8000016894F80CC002689B01C1F3014143EA69
:101D90000141C2F3027241EA0C6141EA0271016041
:101DA0002968626A21F01F01521E114329602168CF
:101DB000C90110D5238A62680168D0F800C0920179
:101DC000C1F3036142EA034242EA0162CCF30271C9
:101DD00042EA01710160216889010CD56168228A9B
:101DE000237B94F808C0890141EA024141EA03617A
:101DF00041EA0C7101603168B04641F080613160A8
:101E0000FFF730F9064604E0FFF72CF9801B642841
:101E10000CD8D8F800000001F6D56FB3D9F800004F
:101E20004E4620F08050C9F8000000E079E0FFF74E
:101E300019F9074605E000BFFFF714F9C01B642835
:101E40006FD83068C0438000F6D5074821688030DD
:101E50000A0301D5E26B1AB1C90225D5216C19BB61
:101E600063690168277E08E008380240007000407E
:101E700000380240FFFCFF0F5AE00268C1F3014145
:101E80009B0143EA0143C2F3027143EA076242EA5B
:101E90000171016029686FF0FF03A26A21F4F85113
:101EA00003EB0222114329602168890212D5E16FF8
:101EB00051450FD1238C6269016807689201C1F313
:101EC000036142EA034242EA0162C7F3027142EA55
:101ED000017101602178090716D561690268D0F89F
:101EE00000C08B01277FC2F30362CCF3014143EAB8
:101EF000014141EA026141EA077101602868E16A33
:101F000020F4403008432860306840F08050306052
:101F1000FFF7A8F8044607E0FFF7A4F8001B6428C1
:101F200002D90320BDE8F88F3068C0438000F3D4A5
:101F30000020F7E72DE9F04705000F4663D0444E37
:101F4000306800F00F00B84209D2306820F00F006E
:101F500038433060306800F00F00B84253D1286831
:101F60003C4C810712D5400703D5206840F4E0506F
:101F700020602878000703D5206840F46040206086
:101F8000A968206820F0F000084320602878C00786
:101F90002AD0304968680839012810D00968022819
:101FA00010D0890700292EDA216821F003010143AE
:101FB0002160FFF757F8804641F288390DE0096843
:101FC0008903EFE78901EDE7FFF74CF8A0EB080183
:101FD000494502D90320BDE8F0876868216801F00F
:101FE0000C01B1EB800FEFD1306800F00F00B84268
:101FF0000BD9306820F00F0038433060306800F0B3
:102000000F00B84201D00120E5E72878400705D548
:10201000E968206820F4E050084320602878000731
:1020200006D52869216821F4604141EAC00020609A
:1020300000F056F82168084AC1F30311515CC8400A
:10204000064908600020FFF731F90020C3E70000CF
:10205000003C024008380240B06000082000002028
:102060000D4A0F2330B503604FF4E0540B4B156855
:1020700005F003054560156805F0F00585601568F5
:1020800005F4E055C560126804EAD20202611868DE
:1020900000F00F00086030BD08380240003C0240EC
:1020A0000449054809680068044AC1F38221515C6B
:1020B000C84070470838024020000020C060000877
:1020C0000449054809680068044AC1F34231515C7B
:1020D000C84070470838024020000020C060000857
:1020E000154910B51548096811F00C0213D01449B0
:1020F000042A0FD0082A0ED10F4C241F226823680F
:1021000002F03F025B0207D52068C0F38810A0FBF5
:10211000010106E0084610BD2168C1F38811A1FB4A
:1021200000010023FEF76CF82168C1F30141491C4E
:102130004900B0FBF1F010BD083802400024F40063
:1021400040787D012DE9F84F05004FF000076ED073
:102150002878DFF81C93A9F1040AC007AAF1040447
:102160004CD0D9F800104846C1F38101012908D0AC
:102170000068C0F3810002280AD1DAF800004002AA
:1021800006D52068800339D568680028DFD035E09F
:102190006868B0F5803F0BD010B1B0F5A02F11D01A
:1021A000206820F480302060206820F4802002E045
:1021B000206840F480302060686890B1FEF752FFDC
:1021C00006460AE0206840F480202060F0E700BF67
:1021D000FEF748FF801B642872D820688003F7D57B
:1021E0000CE0FEF73FFF064605E000BFFEF73AFFB2
:1021F000801B6428F0D820688003F7D428788007F3
:1022000042D5D9F80010484611F00C0F08D00068EC
:10221000C0F3810002280BD1DAF80000400207D495
:102220002068800718D5E868012800D114E01CE177
:10223000E8680028206817D040F001002060FEF711
:1022400011FF064605E000BFFEF70CFF801B0228C9
:10225000C2D820688007F7D52869216821F0F801E5
:1022600041EAC00020600FE020F001002060FEF78E
:10227000F9FE064605E000BFFEF7F4FE801B0228CB
:102280001ED820688007F7D42878000729D5784819
:1022900069696C3000298046016812D041F0010163
:1022A0000160FEF7DFFE064605E000BFFEF7DAFE3E
:1022B000801B022804D8D8F800008007F6D510E06B
:1022C00089E021F001010160FEF7CCFE064604E042
:1022D000FEF7C8FE801B02287DD8D8F800008007D2
:1022E000F6D4287840076BD5DFF8848108F13808E8
:1022F000D8F80000C0000BD4D8F8001041F080518D
:10230000C8F80010D8F80000012700F080500090B5
:1023100058480168C90512D40168834641F48071A8
:102320000160FEF79FFE064605E000BFFEF79AFE3D
:10233000801B64284FD8DBF80000C005F6D54C4E52
:10234000A868683601280AD008B1052811D030687D
:1023500020F001003060306820F0040002E03068B6
:1023600040F001003060A868A0B1FEF77BFE834614
:102370000CE0306840F004003060F0E7FEF772FED9
:10238000A0EB0B0141F28830814266D830688007AB
:10239000F4D50EE0FEF766FE834607E0FEF762FE28
:1023A000A0EB0B0141F28830814256D8306880079B
:1023B000F4D42FB1D8F8001021F08051C8F80010E3
:1023C000A869C8B3D9F80010C1F3810102294CD023
:1023D0000228206800E040E020F08070206003D0F8
:1023E000FEF740FE05463BE0FEF73CFE064604E0F5
:1023F000FEF738FE801B02282FD820688001F7D412
:10240000D5E90962D5E907011B4B570895F82C203F
:10241000084303EB074343EA8611084340EA02609E
:1024200040F00050CAF80000206840F08070206042
:10243000FEF718FE054606E015E000BFFEF712FEA7
:10244000401B022809D820688001F7D50BE000BFA7
:10245000FEF708FE401B022802D90320BDE8F88FD2
:1024600020688001F4D40020F8E70120F6E700009E
:1024700008380240007000400000FFFFF0B5037F05
:10248000012B26D001240477022343770568CA264E
:10249000AB686E625325066875620568EE6C26F0BF
:1024A0000606EE640568EE6C40F608071643EE6417
:1024B000BB430B4301688B6001688A6842F4006289
:1024C0008A600268FF215162002144770177084643
:1024D000F0BD0220F0BD00002DE9F041040002D063
:1024E000607F18B107E00120BDE8F081002020776F
:1024F000204600F041F802206077CA21226853206C
:10250000516221684862204602F0C0FA0028206823
:102510004FF0FF0103D0042241626277E3E7154DDB
:10252000012382682A408260D4E90026D4E9045756
:1025300090683D433043284390602268E068106112
:1025400020682289056945EA024202612068C26862
:1025500022F08002C2602068C26C22F00802C264CD
:102560002068A569C26C2A43C2642068416263770F
:102570000020B9E7BFFF8FFF00680449884204D1FB
:102580000348016841F400410160704700280040A1
:10259000703802402DE9F05F0446007F0B460128A9
:1025A00043D002210120207761774FF00006206898
:1025B00080684FEA4060BAB3002800DB1E73587889
:1025C0001A781F7B9978050293F824C041EA0241EA
:1025D000186A45EA07459A69294341EA0C650543AB
:1025E00015432268D3F81CC0CA215F6853204FF0FE
:1025F000FF0851624FF47A7A216847EA0C074FF0DE
:10260000030B4862986AB0F5807F206881682DD0FE
:1026100021F4007181602068816821F4005181609B
:10262000FEF720FD814655E002E00220BDE8F09F64
:10263000002800DB1E73187802F01DFA0204587897
:1026400002F019FA42EA0022987802F014FA197B93
:10265000024393F8240042EA014202F00CFA196A9C
:1026600042EA006598690D430543BAE721F4807199
:1026700081602068816821F480518160FEF7F2FC5E
:1026800081460BE0FEF7EEFCA0EB0900504505D9B2
:102690002268C2F8248084F81DB018E02068C06861
:1026A000C007EFD02068C561206847642068816852
:1026B00041F480711AE000BFFEF7D4FCA0EB0900E2
:1026C000504507D92268C2F8248084F81DB0032041
:1026D0002677ABE72068C0688007EDD520680562E3
:1026E000206887642068816841F4007181602268F5
:1026F0000120C2F8248060770020267796E700004A
:102700002DE9F0470446007F0B46012821D04FF009
:10271000010984F81C9002216177EAB15978987810
:10272000DA781B78090240EA024541EA4330054362
:102730002268CA215320516221684862204602F073
:10274000A5F94FF000064FF0FF074FF0040860BBFB
:102750001AE00220BDE8F0875878C10603D500F0E2
:10276000EF000A305870D87802F085F902045878E2
:1027700002F081F942EA0022987802F07CF9197897
:10278000024342EA4135D3E721680F4805404D60D6
:102790002068C16821F08001C160206880688006DF
:1027A0000AD4204600F088F830B121684F6284F8DE
:1027B0001D8001202677CDE721684F6284F81D90A7
:1027C00000202677C6E700003FFFFF002DE9F04715
:1027D0000446007F0D46012828D04FF0010A84F8F6
:1027E0001CA00221617720684FF0000680684FEA44
:1027F0004060F2B1002800DB2E7369782A78A8784F
:102800002B7B090240EA024741EA03400743226862
:10281000CA215320516221684862204602F036F9ED
:102820004FF0FF084FF00409A0BB16E00220BDE8FE
:10283000F087002800DB2E73287802F01CF90204D0
:10284000687802F018F942EA0022A87802F013F939
:10285000297B024342EA0147D9E72168154807402E
:102860000F602068816821F4802181602068D5E9AB
:10287000041283681143194381602068C16821F004
:102880008001C1602068806880060BD4204600F07B
:1028900013F838B12268C2F8248084F81D90012012
:1028A0002677C4E72268C2F8248084F81DA000209F
:1028B0002677BCE77F7F7F0070B504460068C1685B
:1028C00021F0A001C160FEF7CDFB4FF47A760546FA
:1028D00007E000BFFEF7C6FB401BB04201D9032052
:1028E00070BD2068C0688006F4D5002070BD00006F
:1028F0002DE9F0474FF000060400354604D094F867
:102900007D00B14618B107E00120BDE8F087204600
:1029100084F87C9000F0E0F8022084F87D002046E6
:1029200002F0D2F8E06838B1012802D0022803D1C1
:1029300001E0102600E02026A16861B1012906D03F
:1029400002294FF4006005D0032904D10EE04FF4B2
:10295000806500E005465C495B4A20682031904272
:1029600001D0884205D15848001F03E046F0010617
:10297000F0E756480660E06948B3236800209342B8
:1029800001D08B4203D14FF40020FEF7C5FF4F4A20
:102990002168121D914203D04C4A2432914203D146
:1029A0004FF48010FEF7B8FFE16900EB80000A22C7
:1029B00040004902B0FBF1F0B0FBF2F3B0FBF2F1E2
:1029C000216202FB1300082801D9491C21626068BA
:1029D0004FF40078E8B3022871D0E06B012801D0F1
:1029E0004FF000082068DFF8E8C06FF0FF01394EB3
:1029F0004EF20F0203684FF2200703EA0C03036054
:102A0000236B60681843D4E90D3C43EA0C03184378
:102A1000636A40EA08002843D4E904C518432368E0
:102A200040EA0C002843258CD3F800C040EA055545
:102A3000484645EA0C051D6023685D684FF0010CAF
:102A400095435D60D4F80080D8F80420A3691A4348
:102A500000E034E0D4E90A352B431A43C8F80420D7
:102A60002268936833409360A36C226D256C1A43EF
:102A7000E36C6D1E2B43656C1A43236801EB05253F
:102A80002A439D682A439A6054F8542BD3683B40EC
:102A9000D36094E86400A78954F8543D2A4301EBBD
:102AA000062141EA0741DD680A432A43DA60C4F897
:102AB000800084F87DC084F87C00002025E7E06B6E
:102AC00001288DD08EE7000004580140005C0140D1
:102AD00010C005FF0080F8FF2DE9F04320490746AC
:102AE000006800261F4C87B01F4D88424FF0020837
:102AF0004FF00A0915D1A86838B9216841F40001DE
:102B00002160216801F400010591401CA860F023B8
:102B10000093CDE9018615486946CDE90369FEF7C2
:102B2000A3F90F4938682031884216D1A86838B90E
:102B3000216841F400012160216801F40001059140
:102B4000401CA8604FF480630093CDE901860848DB
:102B50006946CDE90369FEF787F907B0BDE8F08360
:102B6000045C01404438024008000020002002407C
:102B70000018024070B504000D4603D094F82C00F4
:102B800010B107E0012070BD002084F82D00204620
:102B900000F011F8022084F82C002068211DFDF7B8
:102BA000E1FCD4E900022946FDF70CFD012084F880
:102BB0002C00002070BDFEF7FDB8FEB504460D46A2
:102BC000416C032084F83400032920D0B5F5805FE0
:102BD0001DD0B5F5006F05D045B1A06B40F0006089
:102BE000A06309E0204602F027FC02E0204602F044
:102BF000FCFBA16B0143A163A06B012658B12168C6
:102C000040F2FF50886384F834600120FEBDA06B61
:102C100040F08050E4E7211DD4E905070EC9CDE955
:102C200000500297206802F071FA84F834600020A6
:102C3000FEBDF0B5426E120E93090B70C2F3830411
:102C400002F003024C708A70426E120CCA70B0F827
:102C50006420120A0A7190F864204A714FF6FF73DB
:102C6000826E120E03EA0212CA80CB88826EC2F311
:102C7000074214092343CB8002F00F020A72B0F816
:102C800068200025C2F30722D3094B72C2F38014D7
:102C9000C2F34016C2F300178C72CE720F734D73DD
:102CA0000123446C4FF400766CB1012C46D00268CD
:102CB00040F2FF519163816B41F08051816380F854
:102CC00034300120F0BD9207120D0A610C6990F8B2
:102CD000682044EA82020A610C69C26E120E9709EA
:102CE000C2F3C20C3C430C6102F0070281F814C02D
:102CF0004A75C26EC2F30742940757098F75640F75
:102D0000C2F38202CA750C760A7EB0F86C40C4F336
:102D1000072442EAD4120A760A69521C42650F7EE1
:102D2000BF1CBA4042650F7A03FA07F787654FEA7E
:102D3000572C02FB0CF2C0E917261CE090F8682023
:102D40009206920A0A610C69C26E120E44EA0222CD
:102D50000A610C69C26EC2F3074214430C610A692E
:102D6000B0F86C40521C4FEA82224265C4F307243B
:102D7000C0E916620666C4F380124FEA84644A769C
:102D80004FEA54648C7690F86C208C7E4FEAD21611
:102D900002F07F0244EA06048C76CA7650F8702F5F
:102DA0004FEA12624FEAD2140C77C2F34116C2F313
:102DB00082074FEA82724E778F774FEA1272CA7794
:102DC000CC7F0268C2F3074244EA9214CC77C2F384
:102DD000401602F0010281F8206081F8215081F84C
:102DE00022200288C2F307224FEAD21481F823403E
:102DF000C2F38015C2F34016C2F30017C2F3810C70
:102E000002F0030281F8245081F8256081F82670D1
:102E100081F827C081F8282000784FEA500081F817
:102E2000290081F82A304FF00000F0BD426C0A60A2
:102E3000826C4A60C26C8A60026DCA60426D0A612F
:102E4000826D4A61C26D8A61006EC8610020704760
:102E500070B5B0F85010002504460068090401F070
:102E6000A1FF18B1A16B0143A16304E02068002118
:102E700002F046F90546C5F3432070BD70B5040065
:102E800004D094F83400002510B105E0012070BD95
:102E90002046257700F03CF8032084F834002046D3
:102EA00000F007F80120A563256384F834000020B2
:102EB00070BD3EB504467620002100910B460A46BF
:102EC000CDE90110206802F021F92068416821F461
:102ED00080714160206802F02AF92068416841F45D
:102EE000807141600220FDF753FF204602F02AFA6C
:102EF0004FF0010520B9204602F0B1F9002805D0B5
:102F000084F83450A16B0143A16301203EBD000051
:102F1000F0B587B0044614216846FDF7BBF91A499D
:102F2000206888422DD11948016841F40061016090
:102F3000006800F40060059014481438016841F0FE
:102F400004010160016801F004010591016841F08C
:102F500008010160006802240025694600F00800AD
:102F6000059003260C274FF4F8508DE8F10008482F
:102F7000FDF77AFF042069468DE8F1000548FDF76A
:102F800073FF07B0F0BD0000002C01404438024040
:102F900000080240000C02402DE9F04F87B09A462D
:102FA00017460E460446DDF840B0FEF75BF8009089
:102FB0003EB194F83400012807D0A06B40F00050D7
:102FC0000FE0A06B40F000600BE0E16D07EB0A0042
:102FD0004FF00008C4F83880884204D9A06B40F054
:102FE0000070A0637DE0032084F834002068C0F8FE
:102FF0002C80606C012800D07F0220684FF40071A3
:1030000001F0B6FD40F2FF594FF0010530B12268E2
:10301000C2F83890A16B0143A16360E002204FF039
:10302000FF324FEA4A239021CDE90310CDE9012375
:10303000CDE90585206801A901F032FFBAF1010F41
:1030400006D9022020632068394601F01DFE04E005
:1030500025633946206801F030FE0028D7D122E0F0
:10306000406B000409D50027206802F064F846F898
:1030700027007F1C082FF7D32036BBF1000F05D0A7
:10308000FDF7F0FF0099411A59450CD32168C1F8AA
:103090003890A06B40F00040A06384F834500320C7
:1030A00007B0BDE8F08F2068416B11F4957FD7D051
:1030B000416BC90509D5BAF1010F06D9616C032925
:1030C00003D001F0A1FE0028A1D12068416B0907BF
:1030D00009D5C0F83890A06B40F0080028E084F8CB
:1030E00034500120DCE7416B890705D5C0F83890E2
:1030F000A06B40F002001BE0416B89061AD5C0F8B6
:103100003890A06B40F0200012E000BF02F013F8EE
:10311000BBF1000F01C605D0FDF7A4FF0099411ACD
:10312000594507D32168C1F83890A06B40F00040A2
:10313000A063D4E72068416B8902E7D4C0F83890D7
:1031400084F834500020ABE72DE9F04F87B09A4661
:1031500016460D460446FDF785FF83463DB194F8BB
:103160003400012807D0A06B40F000500DE0A06BA8
:1031700040F0006009E0E26D002006EB0A01A06368
:10318000914204D9A06B40F00070A0639CE0032141
:10319000814684F834102168C862606C012800D030
:1031A000760220684FF4007101F0E2FC40F2FF5813
:1031B0004FF0010730B12268C2F83880A16B01439B
:1031C000A16317E0BAF1010F06D92020206320681F
:1031D000314601F033FE05E01020206320683146BF
:1031E00001F045FE060008D02168C1F83880A06BC8
:1031F0003043A06384F8347066E048464FF0FF31F6
:103200004FEA4A23B9469022CDE90407CDE90220CE
:10321000CDE900132068694601F042FE22E0406BD0
:1032200040040AD55FF00007206805EB870101F034
:1032300096FF7F1C082FF7D32035109830B1FDF78B
:1032400011FFA0EB0B01109881420BD32268C2F84A
:103250003880A06B3043A06384F83490032007B01B
:10326000BDE8F08F2068416B11F48D7FD7D0416BA2
:10327000C90510D5BAF1010F0DD9616C03290AD027
:1032800001F0C2FD38B123684946C3F83880A26B0B
:103290000243A26316E02068416B090708D5C0F815
:1032A0003880A06B40F00800A06384F834900BE0F5
:1032B000416B89070AD54946C0F83880A06B40F0B9
:1032C00002000CE084F834100120C8E7416BC0F81C
:1032D0003880C906494604D5A06B40F01000A063B1
:1032E000F0E784F834100020B9E700002DE9F04140
:1032F000040004D094F84500002518B107E001202F
:10330000BDE8F08184F84450204600F029F80220FE
:1033100084F845002068016821F003010160D4E9C8
:103320000131A069D4E90326184363691143226877
:10333000084330431843D4E90717D4E90936084352
:1033400011683843054F1843394030430843106033
:103350000121A56484F845100020D1E70784F8FF17
:1033600010B586B0044614216846FCF793FF206828
:10337000B0F1402F1FD11148016841F48031016044
:10338000006800F4803005900C481038016841F066
:103390000801016000680823802100F00800059002
:1033A0000020009102226946CDE90120CDE9030306
:1033B0000348FDF759FD06B010BD0000403802403B
:1033C000000C024070477047704700002DE9F04341
:1033D00090F83C20012A42D0012280F83C2051F88C
:1033E0000C4BDFF880804FF0000991E8680051E94C
:1033F000022723F44073B1F80CC03B43CF6923F498
:1034000080631343026823F40063234323F480534F
:1034100043EA050323F4005343EA060323F48043FD
:1034200043EA07030C3923F47023424543EA0C4373
:1034300002D00D4CA2420CD18D8C23F47006D1E940
:10344000073446EA055121F08071194321F00073D9
:103450002343536480F83C900020BDE8F0830220B1
:10346000FBE70000000001400004014070B590F847
:103470003C20012A24D0134C012580F83C50022224
:1034800080F83D2002685368A242966802D00E4C34
:10349000A24203D14C6823F4700323430C6823F049
:1034A000700389681C435460002326F0800602687C
:1034B0003143916080F83D5080F83C30184670BD33
:1034C000022070BD000001400004014010B504005E
:1034D00003D094F83D0010B107E0012010BD00209A
:1034E00084F83C00204600F00DF8022084F83D00EE
:1034F0002068211D02F0C8F8012084F83D0000205A
:1035000010BD000008B502681A481B49824205D167
:10351000086840F001000860086811E01748B2F13F
:10352000804F08D0164B9A420ED1016841F002013B
:10353000016000681BE0016841F001010160006862
:1035400000F00100009008BD0E4B9A4207D10168BF
:1035500041F008010160006800F00800F2E70A4845
:103560008242F0D1086840F002000860086800F06C
:103570000200E7E7000001404438024040380240C2
:1035800000040040000C0040000401400168094AAA
:10359000CB6843F00103CB600168886810400628BF
:1035A00006D0B0F5803F03D0086840F00100086005
:1035B000002070470700010070B5044690F83C00F9
:1035C000012817D0324B012584F83C50022084F8A2
:1035D0003D0022689068184020F47F4090600868A1
:1035E000502830D00DDC20284DD005DC98B31028B1
:1035F0003BD148E0022070BD302844D0402834D16F
:1036000039E0602828D0702806D0B0F5805F2CD033
:10361000B0F5005F29D10AE04A682068D1E90213B9
:1036200002F098F82068816841F0770109E04A6863
:103630002068D1E9021302F08DF82068816841F416
:103640008041816011E0CA684968206802F0CAF9C7
:103650002068502107E016E0CA684968206802F037
:10366000D2F92068602102F07EF8002084F83D50F5
:1036700084F83C0070BDCA684968206802F0B2F95D
:1036800020684021EFE7226801461046EBE7000082
:1036900088FFFEFF704770B5044600680025016989
:1036A000C943890715D4C168C943890711D4EA1EE3
:1036B000026101212177206880698007204602D0BD
:1036C000FFF7E8FF04E000F027F9204600F0E8F9F2
:1036D000257720680169C943490717D4C168C943E0
:1036E000490713D402216FF0040202612177206898
:1036F000806910F4407F204602D0FFF7CBFF04E042
:1037000000F00AF9204600F0CBF92577206801691E
:10371000C943090716D4C168C943090712D4042153
:103720006FF00802026121772068C0698007204697
:1037300002D0FFF7AFFF04E000F0EEF8204600F003
:10374000AFF9257720680169C943C90617D4C16854
:10375000C943C90613D408216FF010020261217712
:103760002068C06910F4407F204602D0FFF792FF26
:1037700004E000F0D1F8204600F092F925772068A7
:103780000169C943C90708D1C168C943C90704D140
:10379000891E0161204600F085F920680169C9434E
:1037A000090609D4C168C943090605D46FF0800130
:1037B00001612046FFF707FE20680169C943C9057A
:1037C00009D4C168C943090605D46FF48071016149
:1037D0002046FFF7F7FD20680169C943490609D46F
:1037E000C168C943490605D46FF040010161204614
:1037F00000F062F920680169C94389060BD4C168E9
:10380000C943890607D46FF0200101612046BDE855
:103810007040FFF7D9BD70BD70B586B00446142165
:103820006846FCF737FD24680022334E02233149F5
:1038300001253248B44209D10C6844F001040C60FF
:10384000096801F001010591811520E0B4F1804F74
:1038500013D02B48844224D1086840F0020008604D
:103860000868694600F00200059010200090CDE93C
:1038700001322448CDE903230FE00C6844F0010431
:103880000C60096801F0010105914FF400410091BD
:10389000CDE90132CDE903256946FDF7E5FA06B029
:1038A00070BD194884420FD1086840F480700860E8
:1038B00008686946009500F48070CDE901320392F2
:1038C000CDE904301148E8E711488442E7D108689F
:1038D00040F080000860086800F0800005904020FB
:1038E000009009210B48CDE90132CDE90321694659
:1038F000D3E70000303802400000014000000240E1
:103900000004004000040240000C0040002002407F
:1039100000180040001C0240704770B5044690F843
:103920003C000D4601280ED0012684F83C600220A0
:1039300084F83D000C2A45D007DC5AB1042A1BD07C
:10394000082A78D12CE0022070BD102A4ED0142A0B
:1039500071D15DE0206801F00FFF2068816941F0BE
:10396000080181612068816921F00401816120687A
:103970002A698169114311E0206801F037FF20684E
:10398000816941F4006181612068816921F480616D
:10399000816120682969826942EA012181614AE0E6
:1039A000206801F05FFF2068C16941F00801C16132
:1039B0002068C16921F00401C16120682A69C169D8
:1039C000114311E0206801F089FF2068C16941F4CA
:1039D0000061C1612068C16921F48061C161206812
:1039E0002969C26942EA0121C16124E0206801F02D
:1039F000A1FF2068416D41F0080141652068416DDB
:103A000021F00401416520682A69416D114311E0EC
:103A1000206801F0BBFF2068416D41F40061416501
:103A20002068416D21F48061416520682969426DFB
:103A300042EA01214165002084F83D6084F83C00A1
:103A400070BD10B5040003D094F83D0010B107E03C
:103A5000012010BD002084F83C00204600F00CF846
:103A6000022084F83D002068211D01F00DFE012098
:103A700084F83D00002010BD08B500680649884262
:103A800008D10648016841F040010160006800F07B
:103A90004000009008BD000000180040403802407F
:103AA0007047000000680349884201D1FDF7EABB76
:103AB0007047000000100040704770472DE9F0414A
:103AC000026804460025D0691168936810F00F0F52
:103AD0005BD003F0010601F49077374369D0C70744
:103AE00007D0CF0505D501271762E26F42F001022A
:103AF000E267820708D5DA0706D0276802223A6211
:103B0000E26F42F00402E267420708D5DA0706D006
:103B1000236804221A62E26F42F00202E26702079F
:103B20000AD501F02002324306D0236808221A6227
:103B3000E26F42F00802E267E26F002A32D08006AC
:103B400005D5880603D5216E09B12046884721682E
:103B5000E06F8968490601D4000725D5204601F0A9
:103B6000F0FF20688168490619D5816821F040017D
:103B70008160E06E98B11A490165E06EFDF7F6F8D4
:103B800000280FD0E06E016D06E0830611D58B068C
:103B90000FD5216E12E02046BDE8F04108472046CF
:103BA000FFF78BFFBDE8F0812046FFF786FFE56752
:103BB000F8E7030605D50B0603D5616E0029EAD1A7
:103BC000F0E74006EED54806ECD5136820212046E4
:103BD00023F0400313606167656600F053F9E1E785
:103BE0002F5B000810B5040002D0606F10B107E031
:103BF000012010BD002084F87000204600F026F857
:103C0000242060672068016821F0010101602046DE
:103C100002F002F80128ECD0606A10B1204601F0F1
:103C200004FF2068416821F4904141602068816868
:103C300021F02A0181602068016841F001010160E2
:103C40002046BDE8104001F054BF00002DE9F041CE
:103C500086B0054614216846FCF71CFB3849002451
:103C6000384E80222B68143935480225B34232D1B0
:103C7000036843F010030360006800F01000059033
:103C8000086840F002000860086800F00200059033
:103C9000086840F00100086008680726009269463D
:103CA00000F00100CDE901540394CDE904602648F9
:103CB000FDF7DAF828020090CDE90154234869465F
:103CC000CDE90346FDF7D0F8002225201146FDF787
:103CD000E9FC25202FE01E4EB3422ED1036843F0AD
:103CE00020030360006800F020000590086840F0A1
:103CF00004000860086801AB0326DFF8588000F074
:103D000004000590082700921220694683E8D1003C
:103D10004046FDF7A9F84020694602ABCDE9000511
:103D2000404683E8D000FDF79FF800224720114667
:103D3000FDF7B8FC4720FDF7A7FC06B0BDE8F08111
:103D400044380240001001400004024000000240DC
:103D5000001401400008024070B5836F202B4BD146
:103D6000B9B1B2B190F87030012B45D0836801260B
:103D700080F870600024416535030466AB42A0F80A
:103D80005820A0F85A204FF0FF0107D1026912B164
:103D900026E0012070BD40F2FF1121E04FF07F02CC
:103DA000E3B1B3F1805F1ED0A0F85C402221C4676C
:103DB000816701688A6842F001028A608168A942CD
:103DC00001D10169B1B10D49016680F87040006808
:103DD000016841F490710160002070BD036933B93E
:103DE000A0F85C10E2E7016909B13F21F8E7A0F80B
:103DF0005C20DBE70249E7E7022070BDBD5B0008FD
:103E0000635B00080449884204D10C220248B431A3
:103E100000F004B870470000A406002070B5436F9E
:103E2000202B28D1B1B1AAB190F87030012B22D04B
:103E30008668012480F87040002343662125C16410
:103E4000B6F5805FA0F85020A0F85220C367456700
:103E500002D003E0012070BD016951B107494166FC
:103E600080F870300068016841F080010160002036
:103E700070BD0349F3E7022070BD0000AD5E00088D
:103E80006D5E0008084910B588420BD10748022131
:103E9000FDF7DBF804490C22BDE810400248B431BC
:103EA000FFF75ABF10BD0000A4060020002002400A
:103EB000FEE700000148FDF75DBA0000B8010020F0
:103EC0002DE9FE4F81460068882493468D888C2218
:103ED00004EBCB178A46C3689421BE46C459C3F38A
:103EE0000B432B4404F470441F04019702EBCB12E4
:103EF00040F80E4001EBCB13DAF800709C214FF034
:103F0000AC0C01EBCB1440F2077102910CEBCB111E
:103F1000D9F800C098250020CDF800C0A02605EBF8
:103F2000CB15DCF80CC006EBCB16CCF30B4C0CF12C
:103F3000010C07EB0C08DDF800C0019F48EA0708F8
:103F40004CF80E80D9F80070BAF80CC0B846FF687B
:103F5000C7F30A0767444FEA074E58F8027007F4A0
:103F6000704C48F802C0D9F800C0DAF80870DCF8E4
:103F70000C80C8F30A0808F10108B84448EA0E08A2
:103F80004CF80280D9F80020D75827F00707D750FF
:103F9000D9F80070DAF81020FA509AF831209AF81F
:103FA00018304FEA022C9AF83220120442EA0362D7
:103FB000D9F800301F5918519AF8303043EA0C03F1
:103FC0001343D9F800201351D9F80020535923F096
:103FD000FF035351D9F80020DAF814305351D9F8BF
:103FE00000209359029CA3439351D9F80030DAE999
:103FF000072422439A51D9F8002053585050D9F839
:104000000020DAF824005050DAF81000C8B3012874
:104010003AD004283AD0022838D0032836D00728CE
:1040200034D00120D9F80030B02505EBCB11B422F3
:1040300084245D5802EBCB1205F0E0255D50DAE9EF
:10404000003504EBCB14EB1ABAF828504343454330
:10405000D9F80000DB1C43EA05434350D9F80000BF
:1040600081586FF30A018150D9F80000DAF82C105A
:104070008150D9F80000015941F001010151BDE81A
:10408000FE8FFFE70420CDE70320CBE70220C9E73E
:104090007FB513480024114B4FF480320094012562
:1040A0000194029403940360C0E9012404618461D3
:1040B0000C4980F82040C0E90A14C561C46080F84A
:1040C00030404561FCF776FB04206946CDE90005E8
:1040D00003480294FCF7BCFA7FBD000000220140B7
:1040E000240000200100000F09480021074AC0E910
:1040F00000218160C16001614161816101624162B1
:104100008162C1620163FCF73BBC00000000055006
:10411000900000200449054810B5FCF700FA024958
:10412000491E087010BD0000020000209C600008BD
:10413000F0B587B01C216846FCF7ACF813480021A5
:10414000114E042300F1080E102506604FF4C077CD
:10415000416040268EE82A004FF4006C0222C0E93C
:1041600005670724D502C0E9071CC0E90951CDE95C
:10417000002403266946CDE90462CDE902340692A3
:10418000FEF7F8FC07B0F0BD400100A024070020B6
:104190002DE9F04F87B014216846FCF77BF8AD4855
:1041A000016841F010010160016801F01001059102
:1041B000016841F040010160016801F04001059192
:1041C000016841F002010160016801F002010591FE
:1041D000016841F008010160016801F008010591E2
:1041E000016841F004010160016801F004010591DA
:1041F000016841F001010160016801F001010591D0
:10420000016841F400710160016801F400710591D9
:10421000016841F480710160016801F480710591C9
:10422000016841F480610160016801F480610591D9
:10423000016841F020010160016801F02001059151
:10424000016841F08001016000680122202100F036
:10425000800005908048FCF7FFFE804800220E2178
:10426000FCF7FAFE7E4801220821FCF7F5FE012248
:104270007A481103FCF7F0FE4FF400587948002209
:104280004146FCF7E9FE78480022C821FCF7E4FE2D
:104290000024694608200294CDE900047348FCF725
:1042A000E3FD02254FF00B090321CDF810904FF4E8
:1042B000D040CDE90005CDE902416B486946FCF7E5
:1042C000D3FD43F623406946CDE9000503200A26C5
:1042D0000496CDE902406648FCF7C6FDE80269464F
:1042E000CDE9000463480294FCF7BEFDDFF888B115
:1042F000402159480294CDE9001B6946FCF7B4FD02
:104300004FF4E0506946CDE9000503200496CDE95D
:1043100002405A48FCF7A8FD2020009001274E4893
:10432000CDE9017469460394FCF79EFD41F20E004D
:104330000090CDE90174494869460394FCF794FD67
:104340004F486946CDE900840294FCF78DFD0820B2
:104350000090CDE90174424869460394FCF784FD5E
:104360004FF0100A3C48CDE900A469460294FCF7DE
:104370007BFD48F204006946CDE900043948029407
:10438000FCF772FDCDF800806946CDE9017435482F
:104390000394FCF769FDCDF8008069462F48CDE90C
:1043A00001B4FCF761FD03206946CDE900A5049640
:1043B000CDE902402B48FCF757FDC8200090CDE91D
:1043C0000174294869460394FCF74EFD03206946B1
:1043D00005270496CDE90075CDE902402848FCF791
:1043E00043FD0321CDF810903220CDE90005CDE941
:1043F000024123486946FCF737FD04206946CDE9B0
:10440000000419480294FCF72FFD03221B48862163
:10441000CDF81090CDE90015CDE902426946FCF7D0
:1044200023FD032104962820CDE90005CDE90241B2
:1044300012486946FCF718FD4FF440400090CDE962
:1044400001540B486946CDE90347FCF70DFD07B061
:10445000BDE8F08F30380240000C024000200240DE
:1044600000280240001C02400018024000100240D8
:10447000000402400024024000001210000002402C
:10448000000802400E48002110B50C4C01230D4AD3
:104490000460C0E90121C0E9033141618161C1616A
:1044A0000162FCF73BFE06480021FCF7E1FDBDE898
:1044B000104003480021FCF707BE000000540040F4
:1044C00020010020684740200E48002110B50C4C08
:1044D00001230D4A0460C0E90121C0E903314161B3
:1044E0008161C1610162FCF719FE06480021FCF7F9
:1044F000BFFDBDE8104003480021FCF7E5BD00000A
:10450000005C00406C01002068474020F0B58DB091
:1045100034216846FBF7BEFE22480024204D2821A6
:10452000092240F21526352340F21B1705600B25A2
:10453000446040F2352C846040F21D1EC46004616A
:10454000143080E8EE5080F8204080F8214080F858
:1045500022401438FCF772FF4FF4F0704FF488716A
:104560004506CDE90040CDE90A0107A802270497D6
:104570000723CDE902414FF4C062694680E82C0070
:10458000FF260848CDE905648DF8304000228DF8FB
:1045900031408DF83240FCF7C3FE0DB0F0BD000095
:1045A00000680140B801002030B593B018210BA875
:1045B000FBF770FE002468462C211194FBF76AFE7D
:1045C00027487F21254BFF220360C0E90141C0E954
:1045D000032444618461FDF77FFF8DF82C400122A4
:1045E0008DF82D400BA98DF82E401D480F94109486
:1045F000FEF7ECF801258DF844508DF8455011A9CF
:104600008DF846502A4616488DF84740FEF778F850
:104610008DF8004028028DF8014001228DF80240FB
:1046200069460594019404940A900D4806940794F1
:1046300008948DF82450FDF7ADFF68020A900848F1
:10464000012269468DF82450FDF7A4FF0448022298
:104650000021FDF713FF13B030BD0000002800401B
:10466000AC0200202DE9F041204800241E494026DC
:10467000082701250463C0E90014C0E90D641C4942
:10468000C463846004614461C0E90641C46044625B
:1046900084620764C462C0E91154C464046544655B
:1046A000C0E916450466FEF723F90F4A0F48203289
:1046B00084300321C0E90C468463C46304618461CF
:1046C000C0E90254446284620764C462C0E91154C0
:1046D000C46404654465C0E916450466C0E9002168
:1046E000BDE8F041FEF704B9045C0140CC020020B3
:1046F00000EE0200084800214FF04022C0E90021EE
:104700008160C160016141618161C1610162416299
:104710008162FEF7EBBD00005804002010B588B0A0
:104720001C216846FBF7B6FD0D4800240B49C0E983
:1047300000148460C46004618461FFF782F9602022
:104740006946CDE900040648002202940494FFF76C
:10475000E4F80348FFF760F808B010BD0018004007
:10476000E405002010B59AB000241C21009412A882
:10477000019402940394049405940694FBF78AFD33
:104780002C2107A8FBF786FD20481F49C0E900142B
:104790008460C460046144618461FEF797FE4FF455
:1047A0008050009019486946FEF706FF1748FFF74A
:1047B00048F9164804A9049405940694FEF756FE99
:1047C00060201494CDE912041048002212A9159417
:1047D000169417941894FFF7A0F84FF4005007941C
:1047E0000894099401030A94CDE90B40CDE90E41E8
:1047F000064807A90D9410941194FEF7E7FD0348AD
:10480000FFF70AF81AB010BD00000140A404002010
:1048100010B58EB000241C21009407A801940294C6
:104820000394049405940694FBF734FD14484FF068
:104830008041C0E900148460C46004618461FEF7B3
:1048400045FE4FF4805000900D486946FEF7B4FED7
:104850000B48FFF7F6F80A4804A904940694FEF7FB
:1048600005FE6020CDE907040548002207A9099448
:104870000B94FFF752F80248FEF7CEFF0EB010BDC2
:10488000E404002010B58EB000241C21009407A879
:10489000019402940394049405940694FBF7FAFCA3
:1048A00015481449C0E900148460C460046184613F
:1048B000FEF70CFE4FF4805000900F486946FEF75B
:1048C0007BFE0D48FFF7BDF80B4804A9049406943D
:1048D000FEF7CCFD6020CDE907040748002207A9B8
:1048E00009940B94FFF719F80348FEF795FF0EB0F3
:1048F00010BD0000000400402405002010B58EB05B
:1049000000241C21009407A80194029403940494A9
:1049100005940694FBF7BEFC15481449C0E9001441
:104920008460C46004618461FEF7D0FD4FF4805060
:1049300000900F486946FEF73FFE0D48FFF781F8EB
:104940000B4804A904940694FEF790FD6020CDE97D
:10495000070407480C2207A909940B94FEF7DDFF12
:104960000348FEF759FF0EB010BD0000000C0040D8
:104970006405002010B588B0124800241049059441
:10498000069403940494009401940294C0E90014E2
:104990008460C460046144618461FEF797FD4FF454
:1049A00080500390074803A9FEF706FE05486946B4
:1049B000009401940294FEF759FD08B010BD000068
:1049C00000040140A40500200A48002130B4084C2E
:1049D0000C224FF4E1330460C0E90131C160C0E949
:1049E00004128161C1610162416230BCFFF7FAB813
:1049F00000100140240600200A48002130B4084C71
:104A00000C224FF4E1330460C0E90131C160C0E918
:104A100004128161C1610162416230BCFFF7E2B8FA
:104A200000140140A4060020FEE7704770472DE9FE
:104A3000F041984616460F460446069D12E0681C53
:104A400010D02DB1FCF70EFBA0EB0800A84209D94D
:104A5000042084F84100606C40F001006064012093
:104A6000BDE8F08120688068384000D00120B04265
:104A7000E5D10020F4E7002102E00A38491CC0B269
:104A80000A28FAD2090740EA1160704770B5044657
:104A90000068C168490614D44FF0FF31C160FCF7CB
:104AA000E1FA4FF47A76054607E000BFFCF7DAFA40
:104AB000401BB04201D9032070BD2068C068400689
:104AC000F4D5002070BD000030B50E4941F65833D2
:104AD00002680C6800211568B4FBF3F325F48034F8
:104AE00014609A00521E07D2D0F88020032142F0B1
:104AF0004002C0F8802003E003681B68DB03F1D4A8
:104B0000084630BD2000002030B585B0044637206F
:104B100040220DF1080CCDE9001000236946150173
:104B200020468CE82C0000F009FB372141F2883246
:104B3000204600F0C9F905B030BD000030B50B4A81
:104B400085B004462920114340220DF1080CCDE91F
:104B5000001000236946150120468CE82C0000F067
:104B6000EDFA204600F066FA05B030BD0000108076
:104B700030B585B0044610200DF1080C8501CDE953
:104B8000001040226946002320468CE82C0000F0EB
:104B9000D5FA102141F28832204600F095F905B08F
:104BA00030BD30B585B00446062040220DF1080C1A
:104BB000CDE9001000236946150120468CE82C0041
:104BC00000F0BCFA062141F28832204600F07CF960
:104BD00005B030BD30B585B00546002469464FF4B8
:104BE0008060009401940294CDE90340284600F0CF
:104BF000A5FA0B4A4FF4FA5041F288311268B2FB21
:104C0000F0F04843401E03D24FF0004005B030BDE5
:104C1000696B0906F6D540F2FF512046A963F5E716
:104C20002000002070B50821044685B04FF4D570EF
:104C30004026CA018DE8430000256946CDE90352AC
:104C4000204600F07BFA0F4A4FF4FA5041F28831C7
:104C50001268B2FBF0F04843401E02D24FF000450C
:104C60000CE0616B11F0450FF6D0606B400701D589
:104C7000042502E0606B400600D5A66305B0284617
:104C800070BD00002000002030B585B00446122021
:104C900040220DF1080CCDE90010002369461501F2
:104CA00020468CE82C0000F049FA122141F28832AB
:104CB000204600F009F905B030BD30B585B0044696
:104CC000112040220DF1080CCDE9001000236946A7
:104CD000150120468CE82C0000F030FA112141F239
:104CE0008832204600F0F0F805B030BD30B585B010
:104CF000044640210DF1040C0720009200230D0111
:104D00008CE82B006946204600F018FA072141F292
:104D10008832204600F0D8F805B030BD10B586B016
:104D2000044600210220C02243020493CDE9001072
:104D3000CDE902216946204600F000FA204600F045
:104D400051F906B010BD30B585B0044609200DF10B
:104D5000080CC022CDE90010002369464FF480659D
:104D600020468CE82C0000F0E9F9204600F03AF9E2
:104D700005B030BD10B586B0044600213320402276
:104D8000CDE90221CDE900101301694620460493C4
:104D900000F0D4F9332141F28832204600F094F833
:104DA00006B010BD30B585B004460D2040220DF18F
:104DB000080CCDE9001000236946150120468CE857
:104DC0002C0000F0BBF90D2141F28832204600F0A2
:104DD0007BF805B030BD30B585B00C4600210546E6
:104DE00003204022CDE90221CDE9001013016946DC
:104DF0002846049300F0A2F903212246284600F039
:104E000039F905B030BD000010B586B00446002168
:104E10000C204022CDE90221CDE9001013016946A2
:104E20002046049300F08AF9034A0C21204600F042
:104E30004BF806B010BD000000E1F50530B585B0B7
:104E40000446192040220DF1080CCDE90010002382
:104E50006946150120468CE82C0000F06FF91921F5
:104E600041F28832204600F02FF805B030BD30B551
:104E700085B00446182040220DF1080CCDE9001041
:104E800000236946150120468CE82C0000F056F9F5
:104E9000182141F28832204600F016F805B030BDE6
:104EA00070B50A6842624A688262C46AD1E9022522
:104EB000D1E9043624F0F7012A4333431A4311435E
:104EC000C162002070BD000010B5444C4FF4FA538D
:104ED0002468B4FBF3F353435B1E02D24FF000404F
:104EE00010BD426B12F0450FF6D0426B520703D54E
:104EF00004218163084610BD426BD20702D0012114
:104F0000816303E00269D2B28A4201D0012010BD60
:104F100040F2FF518163002100F0F2F8304908426D
:104F200001D1002010BD002802DA4FF0007010BD42
:104F3000410001D5402010BD810001D5802010BD69
:104F4000C10002D54FF4807010BD010102D54FF4AD
:104F5000007010BD410102D54FF4806010BDC10149
:104F600002D54FF4006010BD010202D54FF480500D
:104F700010BD410202D54FF4005010BD810202D590
:104F80004FF4804010BDC10202D54FF4004010BD67
:104F9000410302D54FF4003010BD810302D54FF418
:104FA000802010BDC10302D54FF4002010BD0104C4
:104FB00002D54FF4801010BD410402D54FF400100B
:104FC00010BD810402D54FF4800010BD000702D54A
:104FD0004FF4000010BD4FF4803010BD20000020C1
:104FE00008E0FFFD124B4FF4FA5141F288321B6882
:104FF000B3FBF1F15143491E02D24FF0004070471C
:10500000426B12F0450FF6D0416B490703D50421DE
:10501000816308467047416BC90703D00121816352
:105020000846704740F2FF5181630020704700003E
:10503000200000200E4B4FF4FA5141F288321B68D9
:10504000B3FBF1F15143491E02D24FF000407047CB
:10505000426B12F0450FF6D0416B490703D504218E
:1050600081630846704740F2FF518163002070471A
:105070002000002030B51F4D4FF4FA5341F2883420
:105080002D68B5FBF3F363435B1E02D24FF0004083
:1050900030BD446B14F0450FF6D0436B5B0703D56E
:1050A00004218163084630BD436BDB0702D0012138
:1050B000816303E00369DBB28B4201D0012030BD84
:1050C00040F2FF518163002100F01AF810F4604FA4
:1050D00004D0410406D54FF4005030BD000C1080C0
:1050E000002030BD000402D54FF4805030BD4FF495
:1050F000803030BD20000020006800F003007047C1
:10510000084408B514300090006808BD70B511431C
:105110004268049EDDE90554334347F6FF661943B0
:105120002943B24321430A434260002070BD03215A
:10513000016000207047D0F88000704770B50A68A1
:105140008260C468D1E90125D1E90336210B2A43E5
:10515000334309031A431143C160002070BD09683D
:10516000C0F880100020704710B5064C0120207058
:10517000FBF77AF918B9207820F001002070207828
:1051800010BD0000000000202DE9F04F89B00E4650
:105190000446FBF767FF0027009701970821834625
:1051A00020683D46FFF7E4FC002835D1B4F85010E4
:1051B00020680904FFF7A8FC00282DD14FF008084B
:1051C0004FF002094FF0010C421E3023CDE90228B6
:1051D000CDE90439CDE9067C206802A9FFF760FE1D
:1051E0002068FFF7C7FD002816D1EA4640F22A479B
:1051F0002068416B394212D1416B890204D5FFF717
:105200009AFF4AF825006D1CFBF72CFFA0EB0B0062
:10521000401CEDD14FF0004009B0BDE8F08F416B6C
:10522000090703D5C0F838800820F5E7416B8907E6
:1052300003D5C0F838900220EEE7416B890603D50C
:10524000202181630846E7E740F2FF51816300981F
:1052500000BA7060019800BA30600020DCE710B539
:1052600090B004460120ADF838002068FFF744FFF5
:10527000002864D0606C032842D02068FFF74EFD00
:1052800000285AD120680021FFF73AFF6067042107
:105290002068FFF735FFA06708212068FFF730FF7F
:1052A000E0670C212068FFF72BFF616CC4F88000D9
:1052B000032925D020680EA9FFF78DFD00283CD1D9
:1052C000606C03281CD0BDF83810216520680904E3
:1052D000FFF739FD002830D120680021FFF710FFCB
:1052E000606604212068FFF70BFFA0660821206894
:1052F000FFF706FFE0660C212068FFF701FF20673B
:1053000004212068FFF7FCFE000DE06403A920469D
:10531000FDF78FFCB4F85000002302042068FFF76B
:10532000E5FC002809D104F1100007C88DE807004A
:1053300094E80F00FFF7EAFE002010B010BD4FF018
:105340008060FAE72DE9F8430025044600950068DF
:10535000FFF740FC00281BD12068FFF763FC4FF0EB
:1053600080784FF6FF76E0B14FF08057A564009843
:10537000B04200F1010000901BD020680021FFF72F
:10538000C3FB20B920680021FFF7D8FB10B13846D5
:10539000BDE8F88320680021FFF7B2FEC00FE6D019
:1053A00020E00127A7640098B04200F101000090BE
:1053B00001D14046ECE720680021FFF7A5FB00285B
:1053C000E6D120684FF08041FFF7B8FB0028DFD11D
:1053D00020680021FFF794FEC10FE4D0400001D502
:1053E000676400E065640020D2E71CB50446002035
:1053F0000090002101902068FFF782FE800102D515
:105400004FF400601CBD69462046FFF7BDFE002832
:10541000F8D10198C0030CD5B4F8501020680904E5
:10542000FFF772FB0028EDD120680021FFF7B9FBE0
:105430001CBD4FF080601CBD1CB5044600200090D0
:10544000002101902068FFF75BFE800102D54FF438
:1054500000601CBD69462046FFF796FE0028F8D183
:10546000019840030CD5B4F8501020680904FFF7E8
:105470004BFB0028EDD120680221FFF792FB1CBDF9
:105480004FF080601CBD000070B5064C0546012041
:105490002070FAF7F5FF18B92846FFF765FE20706F
:1054A000207870BD00000020144810B588B0144664
:1054B0000078C00702D0032008B010BD39B101291F
:1054C00007D002290BD0032910D00420F4E70020D4
:1054D000F2E76846FAF7C2FF069900200CE068463A
:1054E000FAF7BCFF079900202180E5E76846FAF744
:1054F000B5FF07990020490A2160DDE70000002080
:1055000070B501241D4616460846A31E2A4631469C
:10551000FAF7DCFF28B900BFFAF7A6FF0028FBD195
:105520000024204670BDFFF71FBE000070B50124A7
:105530001D4616460846A31E2A463146FAF7D6FFF0
:1055400028B900BFFAF790FF0028FBD100242046BD
:1055500070BD704770B5B4B0302121A8FAF79AFE3B
:1055600014212DA8FAF796FE84216846FAF792FED8
:10557000FCF700F92948016841F08051016000689A
:1055800000F0805032902648016841F440410160AB
:105590000068022501262696E90300F44040329077
:1055A0008A0109204FF4D874CDE92752CDE92101B1
:1055B000CDE92B501923CDE9293421A8FCF7C2FDF0
:1055C000FCF7A2F8EA024FF4A05100242F94CDE991
:1055D00030120F20CDE92D0507212DA8FCF7AAFCDC
:1055E0006420104902950495CDE900100395290225
:1055F0000795CDE90505CDE908460A968804CDE969
:105600000B4111941694109419941B94CDE91F0426
:105610006846FCF711FA34B070BD00004038024013
:10562000007000406848B101104A30B51048146855
:1056300000210F4B44F470041460083305680D4AD0
:105640000D4C45F00105056019600368051D134008
:10565000074A03600C322C600568E305034C25F40F
:1056600080250560803C1160236030BD88ED00E03E
:1056700000380240FFFFF6FE103000240148FEF71C
:105680000AB8000064070020F0B5274B4FF0804EA9
:10569000264D02689842264E264F274C09D0704569
:1056A00007D0A84205D0B04203D0B84201D0A042F2
:1056B00005D1D1F804C022F070024CEA02029842EF
:1056C0001BD0704519D0A84217D0B04215D0B842AF
:1056D00013D0A04211D0194DA8420ED0184DA842A7
:1056E0000BD0184DA84208D0174DA84205D0174D31
:1056F000A84202D0164DA84203D1CD6822F44072D0
:105700002A434D6922F080022A43026098428A6847
:10571000C2620A68826201D0A04201D109690163B4
:1057200001214161F0BD0000000001400004004083
:1057300000080040000C004000040140004001400F
:10574000004401400048014000180040001C004097
:105750000020004042EA032283680A4323F47F4189
:105760000A4382607047826822F070020A4342F066
:105770000701816070470000F0B5026ADFF860C081
:10578000184F22F00102DFF860E00262066A426808
:10579000836926F002060D68B8428C6803EA0C03A0
:1057A00023F0030344EA060445EA030501D07045EB
:1057B00005D1CB6824F00804234323F00404B84245
:1057C00001D0704505D122F44076D1E9053233434A
:1057D0001A4342608561496841630462F0BD00007C
:1057E0008FFFFEFF0000014000040140F0B5026A97
:1057F000194E1A4C22F01002DFF864E00262056ACA
:105800004368826925F02005D1F808C0A0420F68DE
:1058100002EA060222F4407245EA0C1542EA072227
:1058200001D0704506D1CE6825F0800545EA061501
:1058300025F04005A04201D0704507D1D1E90546C9
:1058400023F4406343EA840343EA860343608261AE
:10585000496881630562F0BDFF8FFFFE00000140D3
:1058600000040140F0B5026A194F1A4E22F480720A
:10587000DFF864E00262056A4368C26925F40075D6
:10588000D1F808C0B0420C6802EA070222F0030215
:1058900045EA0C2544EA020401D0704506D1CF68E0
:1058A00025F4006242EA072222F48065B04201D06A
:1058B000704507D123F44052D1E9053642EA03127C
:1058C00042EA06134360C4614968C1630562F0BDE2
:1058D0008FFFFEFF0000014000040140F0B5026AA6
:1058E000124B114F22F4805298420262046A4268BD
:1058F000C36924F400548E680D6803EA070323F497
:10590000407344EA063443EA052302D0084DA84216
:1059100004D14D6922F4804242EA85124260C3619B
:10592000496801640462F0BDFF8FFFFE0000014082
:1059300000040140F0B5026ADFF844C022F480326E
:105940000262056A4268446D25F400350E8960459F
:105950000C4F0B6804EA070445EA064543EA0403D2
:1059600002D0094CA04204D14C6922F4803242EAB0
:10597000042242604365496881650562F0BD00000C
:10598000000001408FFFFEFF00040140F0B5026AF5
:10599000DFF844C022F480120262046A4268436D58
:1059A00024F400140E8960450C4F0D6803EA0703C8
:1059B00044EA065443EA052302D0094DA84204D123
:1059C0004D6922F4802242EA85224260436549689B
:1059D000C1650462F0BD000000000140FF8FFFFEC2
:1059E0000004014010B5036A046A23F00A0324F09E
:1059F0000104046284690B4324F0F00141EA0211BE
:105A00008161036210BD10B5036A23F010030362C5
:105A10008369046A23F4704324F0A00443EA023249
:105A2000826144EA0111016210BD90F82410C90797
:105A300006D00168836A4A6822F400321A434A6039
:105A400090F82410890706D50168C36A4A6822F4D1
:105A500080321A434A6090F82410490706D501683D
:105A6000036B4A6822F480221A434A6090F824109B
:105A7000090706D50168436B4A6822F400421A43BD
:105A80004A6090F82410C90606D50168836B8A68BD
:105A900022F480521A438A6090F82410890606D5B1
:105AA0000168C36B8A6822F400521A438A6090F836
:105AB0002410490611D50168036C4A6822F480124B
:105AC0001A434A60016CB1F5801F06D10168436C2E
:105AD0004A6822F4C0021A434A6090F8241009066A
